S02B00002F686F6D652F646979612F446F63756D656E74732F43616D6272696467655F456E67696E65657269A3
S113000000060020310500005905000059050000D4
S113001000000000000000000000000000000000DC
S1130020000000000000000000000000590500006E
S11300300000000000000000590500005905000000
S11300405905000059050000590500005905000034
S11300505905000059050000590500005905000024
S113006061340000590500006B340000590500009C
S11300705905000059050000590500005905000004
S113008059050000590500005905000059050000F4
S1130090F908000011090000590500005905000085
S11300A059050000590500005905000059050000D4
S11300B059050000590500005905000059050000C4
S1130400FFFFFFFFFFFFFFFFFFFFFFFFFE3DFFFFBB
S113041008B5054B054803331B1A062B03D9044BB7
S1130420002B00D0984708BDA0FFFF1FA0FFFF1FAF
S1130430000000000648074908B5091A8910CB0FC7
S11304405918491003D0044B002B00D0984708BD1D
S1130450A0FFFF1FA0FFFF1F0000000010B5074C06
S11304602378002B09D1FFF7D3FF054B002B02D0D3
S1130470044800E000BF0123237010BDA0FFFF1F4C
S113048000000000E86C000008B5094B002B03D005
S11304900848094900E000BF08480368002B02D15E
S11304A0FFF7C8FF08BD064B002BF9D09847F7E7C4
S11304B000000000E86C0000A4FFFF1F9CFFFF1F6A
S11304C000000000144B002B00D1124B9D4640222B
S11304D092029A1A924600218B460F461148124AFC
S11304E0121A05F082F80D4B002B00D098470C4BE4
S11304F0002B00D098470020002104000D000B4879
S113050004F0F7FF05F02EF82000290001F014F99B
S113051004F0FEFF000008000006002000000000B8
S113052000000000A0FFFF1FEC0300203D55000069
S113053072B606480649074A02600A6002F09AFF4A
S113054002F0DAFF62B6FFF7BDFF000080E100E0D1
S113055080E200E0FFFFFFFF00480047590500006C
S113056002B4714649084900095649008E4402BC48
S11305707047C04602B4714649084900095C490005
S11305808E4402BC7047C04603B47146490840001B
S11305904900095A49008E4403BC704700224308AD
S11305A08B4274D303098B425FD3030A8B4244D337
S11305B0030B8B4228D3030C8B420DD3FF22090279
S11305C012BA030C8B4202D31212090265D0030B38
S11305D08B4219D300E0090AC30B8B4201D3CB032E
S11305E0C01A5241830B8B4201D38B03C01A524170
S11305F0430B8B4201D34B03C01A5241030B8B4272
S113060001D30B03C01A5241C30A8B4201D3CB025C
S1130610C01A5241830A8B4201D38B02C01A524141
S1130620430A8B4201D34B02C01A5241030A8B4244
S113063001D30B02C01A5241CDD2C3098B4201D35C
S1130640CB01C01A524183098B4201D38B01C01ADA
S1130650524143098B4201D34B01C01A5241030951
S11306608B4201D30B01C01A5241C3088B4201D300
S1130670CB00C01A524183088B4201D38B00C01AAD
S1130680524143088B4201D34B00C01A5241411AD4
S113069000D20146524110467047FFE701B50020E1
S11306A000F0FCF802BDC0460029F7D003B5FFF7FF
S11306B075FF0EBC4243891A1847C04603460B43D4
S11306C07FD4002243088B4274D303098B425FD347
S11306D0030A8B4244D3030B8B4228D3030C8B4273
S11306E00DD3FF22090212BA030C8B4202D3121259
S11306F0090265D0030B8B4219D300E0090AC30B2E
S11307008B4201D3CB03C01A5241830B8B4201D3DA
S11307108B03C01A5241430B8B4201D34B03C01AC3
S11307205241030B8B4201D30B03C01A5241C30A3B
S11307308B4201D3CB02C01A5241830A8B4201D3AC
S11307408B02C01A5241430A8B4201D34B02C01A96
S11307505241030A8B4201D30B02C01A5241CDD23B
S1130760C3098B4201D3CB01C01A524183098B4286
S113077001D38B01C01A524143098B4201D34B016F
S1130780C01A524103098B4201D30B01C01A5241D2
S1130790C3088B4201D3CB00C01A524183088B4259
S11307A001D38B00C01A524143088B4201D34B0042
S11307B0C01A5241411A00D20146524110467047B4
S11307C05DE0CA0F00D04942031000D340425340B9
S11307D000229C4603098B422DD3030A8B4212D379
S11307E0FC22890112BA030A8B420CD389019211AB
S11307F08B4208D3890192118B4204D389013AD0E8
S1130800921100E08909C3098B4201D3CB01C01ABC
S1130810524183098B4201D38B01C01A52414309CF
S11308208B4201D34B01C01A524103098B4201D3BD
S11308300B01C01A5241C3088B4201D3CB00C01A2A
S1130840524183088B4201D38B00C01A5241D9D242
S113085043088B4201D34B00C01A5241411A00D2C3
S11308600146634652415B10104601D34042002BBF
S113087000D54942704763465B1000D3404201B53E
S1130880002000F00BF802BD0029F8D003B5FFF7F3
S113089015FF0EBC4243891A1847C0467047C0462C
S11308A008B50A4B1A68002A01D1094A1A601A6865
S11308B008491018884206D904F024FE0C2303606A
S11308C00120404201E01860101C08BDBCFFFF1F5E
S11308D0F00300200004002002238078834280413A
S11308E040427047437A0020013B012B03D9012089
S11308F00B7801330B70704708B5002004F040FA00
S1130900002803D00020011C04F02EFA08BD0000CA
S1130910024A1368013313607047C0462000002068
S113092037B5002003F0FBF8C02300250D4A9B00D7
S113093013600D4A0D4C13600D4A281C13600D4BB7
S113094025716571A5711A68FA239B0053430A49FE
S1130950236004F063FA281C211C01AA04F0C6FADF
S113096037BDC046189014541C90145478000020CD
S113097000A014541CFEFF1F9800002010B5802412
S1130980002004F08FFA0A4B64001C60094B072016
S11309901C60094B1C6003F073FB062003F070FB22
S11309A0201C03F06DFB002003F0BEF810BDC04610
S11309B0189014541C90145400A0145408B500202A
S11309C003F0BCF88023054A9B001360044A00200E
S11309D01360044903F034FC08BDC0460CA0145451
S11309E010A01454F0FFFF1F08B5002003F064FCAE
S11309F080238220074A5B001360074A400013608B
S1130A0003F03EFB0420FF3003F03AFB002003F028
S1130A109AF808BD0CA0145410A0145408B500236F
S1130A20394A3A4913603A4A13603A4A0133FF3368
S1130A301360394A1360394A1360394A1360394ADA
S1130A401360394A1360394A13600122087802405E
S1130A50081C3749002A01D00B6000E00A60354ABF
S1130A603549136000220A6034490A60344A13602D
S1130A70344A1360344A1360344A1360344A1360AE
S1130A80344A13600378DB0703D50220FF3003F0F8
S1130A90E9FA8520400003F0F3FA092003F0F0FAA4
S1130AA00C2003F0EDFA052003F0EAFA082003F025
S1130AB0E7FA0620FF3003F0E3FA0E20FF3003F0DC
S1130AC0DFFA8320400003F0DBFA0820FF3003F054
S1130AD0D7FA0C20FF3003F0C5FA8120400003F060
S1130AE0C1FA8220400003F0CBFA0420FF3003F067
S1130AF0C7FA072003F0C4FA062003F0C1FA8020E5
S1130B00400003F0BDFA08BD0C90145414FEFF1FFE
S1130B101090145414901454189014541C90145499
S1130B2020901454249014543090145400A014545D
S1130B3004A0145408A014540CA0145410A0145469
S1130B4014A0145418A014541CA0145428A0145411
S1130B502CA0145434A0145408B5092003F090FABE
S1130B6008BD08B50C2003F08BFA08BD08B5384B56
S1130B70984259D013D8374B984243D007D8364BB4
S1130B80984230D06433984238D0C83B12E0334B9B
S1130B9098423ED06433984242D0314B15E0314BF9
S1130BA098422FD00CD8304B98421CD064339842D2
S1130BB024D02E4B984242D1052003F061FA15E06F
S1130BC02B4B984225D006D82A4B984237D1052082
S1130BD003F056FA20E0C8231B01984220D0264B8C
S1130BE0984221D02BE0052003F03CFA082003F0C2
S1130BF047FA0620FF3003F043FA24E0052003F00F
S1130C003FFA02E0052003F02DFA082003F02AFA47
S1130C10EFE7052003F026FA082003F031FA09E093
S1130C20052003F02DFA02E0052003F01BFA08204A
S1130C3003F018FA0620FF3003F014FA03E0002052
S1130C400E4902F001FC012002F01AFD08BDC04665
S1130C50C4090000340800006C070000FC08000010
S1130C6098080000540B00008C0A0000280A0000B9
S1130C701C0C0000B80B0000E40C0000305900000C
S1130C8008B5FFF773FF092003F0ECF90C2003F01B
S1130C90F7F98320400003F0F3F908BD08B5FFF726
S1130CA065FF092003F0ECF90C2003F0DBF9832045
S1130CB0400003F0D7F908BDAF2108B50B4B021C67
S1130CC0C3189BB289008B4202D8FFF7D9FF0BE00F
S1130CD0074BC3189BB28B4202D8FFF7DFFF03E038
S1130CE00020044902F0B0FB08BDC046F8F8FFFF3D
S1130CF0D8F5FFFF5D59000008B5FFF72DFFFFF79A
S1130D0030FF8320400003F0ADF908BD10B5041C8A
S1130D10002901D0FFF782FE0021022001F0A6FA8B
S1130D20211C042001F0A2FA10BD08B50820FF30F0
S1130D3003F098F900210120FFF7E8FF0820FF30B5
S1130D4003F09EF93C200121FFF7E0FFEEE70000ED
S1130D5007B5002001A902F08FFEFA21019889004D
S1130D60FFF71CFC3549021C002002F06DFB03F068
S1130D70DBF83349021C002002F066FB02F056FD4A
S1130D803049021C002002F05FFB2F4B2F491A68E8
S1130D900020531E9A4102F057FB002002F0C9FEC6
S1130DA02B49021C002002F04FFB002002F0D0FE71
S1130DB02849021C002002F047FB002002F0CDFE6F
S1130DC02549021C002002F03FFB002002F09AFE9D
S1130DD02249021C002002F037FB012002F092FE9F
S1130DE01F49021C002002F02FFB1E4B1E491A68EB
S1130DF00020531E9A4102F027FB002002F08AFED5
S1130E001A49021C002002F01FFB194B19491A68E9
S1130E100020531E9A4102F017FB174B17491A681A
S1130E200020531E9A4102F00FFB002002F09AFEAC
S1130E301349021C002002F007FB07BD955900006E
S1130E40A7590000BD5900003C80845EE4590000AD
S1130E50F5590000065A0000175A00002B5A0000EA
S1130E603F5A00003C800450535A0000645A00006A
S1130E7034808459755A00003480045A865A00001C
S1130E80985A0000F0B51E1C602395B002AFFB1801
S1130E90F96019786423051CFB1848203A631A7812
S1130EA020233818C3181B784820BB603023381817
S1130EB0C3181B7848207B607C23FB181B883818D8
S1130EC03B621923C318DB7F4820FB618423FB1892
S1130ED01B8838183B604023C3181B78BB610B1C6C
S1130EE0914200D9131CDBB27B64FB6E6A4601336A
S1130EF05C00BB62231C0833DB08DB00D31A9D466D
S1130F0002AB7B623B6B002E02D1002B06D101E0C9
S1130F10002B03D00020684902F096FA221C00211D
S1130F20786A04F062FB386AFFF7C6FE642002F0B8
S1130F30A7FB291C0025002002F076F83C6ABD635B
S1130F40FD62FD637B6CBA6893421FD900210220C5
S1130F5001F08CF9FA6BFB6A94465849634400200B
S1130F6002F072FAFB6956490093FB6BBA6B0020DE
S1130F7002F06AFA53492A1C002002F065FA0020A4
S1130F8051492A1C02F060FA002484E07B68002B9B
S1130F90DCD000237B637B6BBA6A934276DA5B0016
S1130FA03B6100233B643B6C3A6F93426BDA7B6A90
S1130FB03A699C523A6C7B6C944663447B61387DFD
S1130FC0FB68984700283ED1FB6B0133FB633B6A07
S1130FD09C4204D9643CA4B2201CFFF76DFE002E91
S1130FE01AD0FA69737BD31A5A425341BA6BD31895
S1130FF0BB63BB69002B3DD0F37A307B727B796C89
S113100094463A6CDBB2521861460090019100207C
S11310102E4902F019FA2DE03B6BFA691B7AD31AB8
S11310205A425341BA6BD318BB63BB69002B21D01E
S11310303B6B796C3A6C1B7A5218DBB2301C244936
S113104002F002FA16E0022810D1002021497A6940
S113105002F0FAF9FB6A0133FB623B689C4209D255
S11310606434A4B2201CFFF727FE03E00338434294
S113107058412D187B6F002B02DD181C02F000FB79
S11310803B6C01338EE77B6B013383E77B6C01336D
S1131090DBB27B6456E7BB6A9C4209DA7A6A630076
S11310A0D35A0020221C0C4902F0CEF90134F2E795
S11310B0BD4613B0F0BDC04630590000F35A0000DD
S11310C00B5B00003C5B0000515B0000A95A000070
S11310D0CD5A0000E15A0000635B0000F0B591B006
S11310E00C9316AB40CB0F901B780F1C0D931AABCF
S11310F01B880E931BAB1C881CAB1D7800281BD0CF
S1131100101CFFF75BFC0F9B581E112800D991E1BE
S1131110FFF73AFA2B00410057006D00830090015D
S11311209900AF00C500DC00F20008011E014A016D
S113113034019001600176010F9B009101932E23ED
S11311400293199B04960393189B089505930C9B93
S1131150099406930E9BBB4807930D9BBA490A93C7
S11311600F9ABA4BFFF78EFE6AE1312200230292F6
S1131170199A00970392189A019305920C9A04966F
S113118006920E9A089507920D9A09940A92B0480D
S1131190B049B14A49E11D23019358330293199B85
S11311A000970393189B049605930C9B089506934C
S11311B00E9B099407930D9BA8480A93A849A94A32
S11311C082E0392200230292199A00970392189A16
S11311D0019305920C9A049606920E9A089507922A
S11311E00D9A09940A92A048A049A14A1DE1392206
S11311F000230292199A00970392189A0193059278
S11312000C9A049606920E9A089507920D9A0994E0
S11312100A9298489849994A07E140230193123366
S11312200293199B00970393189B049605930C9BB8
S1131230089506930E9B099407930D9B90480A9377
S11312409049914A40E0112200230292199A009792
S11312500392189A019305920C9A049606920E9A98
S1131260089507920D9A09940A9288488849894AF0
S1131270DBE00F2301932A330293199B0097039316
S1131280189B049605930C9B089506930E9B099452
S113129007930D9B80480A938049814A14E00823F0
S11312A001931C330293199B7E480393189B7E4938
S11312B005930C9B7D4A06930E9B009707930D9B09
S11312C00496089509940A930023AEE01D22002396
S11312D00292199A00970392189A019305920C9A14
S11312E0049606920E9A089507920D9A09940A920A
S11312F06F487049704A98E0092200230292199AB3
S113130000970392189A019305920C9A04960692F8
S11313100E9A089507920D9A09940A9267486849AB
S1131320684A82E01F2200230292199A00970392CE
S1131330189A019305920C9A049606920E9A0895AF
S113134007920D9A09940A925F486049604A6CE0DA
S1131350092200230292199A00970392189A019382
S113136005920C9A049606920E9A089507920D9A85
S113137009940A9257485849584A56E0FF220023D4
S11313800292199A00970392189A019305920C9A63
S1131390049606920E9A089507920D9A09940A9259
S11313A04F485049504A40E0FF2200230292199AC4
S11313B000970392189A019305920C9A0496069248
S11313C00E9A089507920D9A09940A92474848493B
S11313D0484A2AE02B2200230292199A009703928A
S11313E0189A019305920C9A049606920E9A0895FF
S11313F007920D9A09940A923F484049404A14E0E2
S11314002B2200230292199A3E480392189A3E49CD
S113141005920C9A009706920E9A019307920D9AE0
S113142004960A92394A08950994FFF72BFDFFF7B1
S1131430DBFA05E036490F9A002002F005F8F6E7DA
S113144011B0F0BD6D5B0000CD240000E000002071
S11314507A5B0000E524000054000020885B000053
S11314600128000014000020945B000065230000A4
S1131470E4FFFF1FA55B00001924000060000020AA
S1131480B55B0000BD23000024000020C45B000005
S1131490952600008C000020D15B000091270000FD
S11314A080000020DE5B00004D2500003C00002091
S11314B0EA5B0000852800006C000020F85B000057
S11314C001290000CCFFFF1F045C0000C1250000BF
S11314D0C8000020115C0000F5260000D8FFFF1FA3
S11314E01D5C00006529000048000020295C000004
S11314F0AD290000C0FFFF1F365C0000F929000081
S113150030000020425C0000092B0000D4000020C1
S11315104E5C0000031C303B021C181E09280CD929
S1131520131C613B052B01D8573A05E0131C413BC2
S11315300020052B01D8373A101C704770B501F014
S11315408EFD051C01F08BFDFF24061C281C204089
S1131550FFF7E0FF051C301C2040FFF7DBFF2D01E7
S11315602818C0B270BD70B501F079FD041C01F0FB
S113157076FD061C01F073FD051C01F070FDFF23D0
S1131580FA221C401D409200303C544364212A1C22
S11315901E40303E4E43303A5A394A43A419034060
S11315A0A218303BD01870BDF0B50F1C8BB0124997
S11315B0059310AB08AC1B780968208006AD07AE14
S11315C00E4809912A703370FFF7F8F9059B211C26
S11315D00193FA239B0002932A1C3B1C00960020D3
S11315E002F090FF041CFFF7FFF9201C441EA041E9
S11315F040000BB0F0BDC0460CFEFF1FFFFF000013
S1131600F7B56A46CB1DDB08DB00D31A02AF9D4653
S1131610051C0C1CFFF784F9FA23002002AE9B0082
S11316202A1C00940193011C331C03F0BBFC041C12
S1131630FFF7A4F9201CBD46441EA0418000F2BD62
S1131640012313B5084C4B222078191CC0B2009317
S1131650FFF7AAFF021E05D023780020DBB203495E
S113166001F0F2FE13BDC04624000020A05C00007F
S113167037B520230121284C112220780093C0B2D1
S11316800B1CFFF791FF021E05D023780020DBB26C
S1131690224901F0D9FE20230121214C1122207876
S11316A00093C0B20B1CFFF77FFF021E05D0237806
S11316B00020DBB21B4901F0C7FE012100241A4DB2
S11316C0202228780B1CC0B20094FFF76DFF021E85
S11316D0A24205D02B78201CDBB2144901F0B4FEE1
S11316E000240121124D221C28780B1CC0B2009446
S11316F0FFF75AFF021EA24205D02B78201CDBB252
S11317000C4901F0A1FE0820FF3002F0B9FC85204D
S1131710400002F0B5FC37BDE4FFFF1FDC5C0000B5
S1131720600000201C5D0000800000205B5D000064
S11317306C000020975D0000F0B5B9B025AC002125
S11317400722201C03F051FFFA4A01252C920322A0
S113175015AB2F9317AB309319AB32931DAB349366
S11317601FAB359321AB369323AB37932CAB1BAF15
S11317701A71002011AA2E92149333972570319474
S113178002F0B8F9281C02F0B5F98022EA4B1202E3
S11317901A6001F093FF00200095021C031C011C39
S11317A001F064FCE549002001F03EFCFA20400011
S11317B001F066FFE249002001F036FCFA20400007
S11317C001F05EFFDF49002001F02EFCFA2040000A
S11317D001F056FFDC4A2B1C0221DC4801F092FF89
S11317E0291C281C01F09AFF002003F005FA0026AA
S11317F0FC2329A9DB00301C0B804D808D80CE801A
S11318000E818E7203F026FA311C2A1C11A803F0F3
S1131810ECFE4820259B08A91993A28809180A8080
S1131820A279023008A909180A70442108AA52189A
S1131830413911701B93A28808A9BA80A279103883
S1131840BA7105223A701593A28802270A87A279F1
S113185009180A70342108AA521817701793A2881D
S1131860063008A909180A80A279C01908A909181C
S11318700A700422063808A909180A701D93A28860
S11318801C3008A909180A80A279C01908A90918E6
S11318900A700822063808A909180A701F93A2883A
S11318A00C3008A909180A80C019A27908A90918D6
S11318B00A700921063808AA121811702193A38806
S11318C00C3008AA12181380A379C01908AA121898
S11318D013700A23063808AA121813706C2208AB76
S11318E09B181E7014AA2B1C2FA802F087F9311C18
S11318F0381C00F0BBFC9649964802F097FBFFF7B2
S11319008DF80820FF3002F0ADFBFA20400001F012
S1131910B7FE0820FF3002F0B3FBFA20400001F0CC
S1131920AFFE0820FF3002F09DFBFA20400001F0DA
S1131930A7FE0820FF3002F0A3FBFA20400001F0CC
S11319409FFE0820FF3002F08DFBFA20400001F0DA
S113195097FE0820FF3002F093FB18207E4900F028
S1131960FBFC68207D4900F051FD10207C4900F00B
S11319701FFD1D207B4900F0B0FD5C207A4900F07A
S1131980E1FD4320794900F017FE0E20784900F06C
S11319907BFE4020774900F0A9FE6A20764900F0DA
S11319A0F1FE7720754900F027FF2920744900F0E3
S11319B065FF1120734900F09DFF5A20724900F021
S11319C0CBFF3A20714900F0EDFF4920704901F046
S11319D00DF87049492001F091F86F4800F042FD7C
S11319E0FFF746FEFFF788F9FA20800001F048FE71
S11319F001F032F980231B020A9609960B93002406
S1131A006649002001F010FB6549002001F00CFB41
S1131A1064490A9A099B002001F016FD624B634F4A
S1131A20634E1A683B683168002000910B99614D40
S1131A300191614901F008FD604B6149614A002050
S1131A40D2584B69096800915F4901F0FDFC2A787E
S1131A506B78A979D2B2DBB2009100205B4901F026
S1131A60F3FC5B492A7A2B7E0978D2B2DBB200916F
S1131A700020584901F0E8FC574B58491A785B7824
S1131A800969D2B2DBB200910020554901F0DCFCB7
S1131A90544B4C499A78544BD2B2CB5800205349FA
S1131AA001F0D2FC524B53491A6811AB1B78002049
S1131AB001F0CAFC5049002001F0B6FA4F49002059
S1131AC001F0B2FA4E49002001F0AEFA4D4900206F
S1131AD001F0AAFA4C49002001F0A6FA4B49002073
S1131AE001F0A2FA4A49002001F09EFA4949002077
S1131AF001F09AFA4849002001F096FA474900207B
S1131B0001F092FA099A231C4549002001F09CFC3B
S1131B104449002001F088FA4349002001F084FA86
S1131B204249002001F080FA4149002001F07CFA8A
S1131B3080E0C046E508000044030020D45D0000B6
S1131B40EF5D0000F55D000010FEFF1F20FFFF1F8A
S1131B5030FEFF1F20FEFF1FE4FFFF1F6000002078
S1131B6024000020540000203C000020C800002075
S1131B708C000020D8FFFF1F8000002014000020EC
S1131B806C000020CCFFFF1F48000020C0FFFF1F97
S1131B9030000020D4000020E0000020FC5D0000A4
S1131BA0205E0000535E00000CFEFF1F1CFEFF1FA2
S1131BB018FEFF1F00400640875E00003C10000036
S1131BC000D0034000700440BF5E0000F55E0000DA
S1131BD000500640245F000000E0074000ED00E0F4
S1131BE0545F000000D00740341000008E5F0000F6
S1131BF020000020B65F0000E45F0000EE5F0000FC
S1131C000B6000002760000043600000606000007B
S1131C1087600000A6600000C5600000F06000005E
S1131C2013610000426100005E61000082610000F7
S1131C30A6610000AF49002001F0F6F9AE4900208A
S1131C4001F0F2F9AD49002001F0EEF9AC490020B1
S1131C5001F0EAF9AB49002001F0E6F9AA490020B5
S1131C6001F0E2F9A949002001F0DEF901F0F7F9E9
S1131C70FF25021C0C902A406A2A00D1F5E130DCD1
S1131C80642A00D11FE10FDC612A56D005DC0A2A40
S1131C9000D096E200209E4990E2622A00D1EDE055
S1131CA0632A00D1FEE08CE2672A00D1CEE106DC93
S1131CB0652A00D112E1662A00D173E181E2682A23
S1131CC000D1CFE1692A00D07BE29249002001F0E3
S1131CD0ABF9FFF748FC83B20B931A1C00208E4922
S1131CE071E26F2A00D15BE20BDC6D2A00DD53E266
S1131CF06C2A00DB12E28949002001F095F9FFF714
S1131D0014F8732A00D153E207DC702A00D14AE2A6
S1131D100820722A00D147E253E2742A00D14AE231
S1131D20782A00D04DE27E49002001F07DF97D48FB
S1131D3001F0A6FC00207C4940E27C49002001F02F
S1131D4073F97B49002001F06FF97A49002001F012
S1131D506BF97949002001F067F97849002001F016
S1131D6063F97749002001F05FF97649002001F01A
S1131D705BF97549002001F057F97449002001F01E
S1131D8053F97349002001F04FF97249002001F022
S1131D904BF97149002001F047F97049002001F026
S1131DA043F96F49002001F03FF96E49002001F02A
S1131DB03BF96D49002001F037F96C49002001F02E
S1131DC033F96B49002001F02FF96A49002001F032
S1131DD02BF96949002001F027F901F040F9021CB0
S1131DE02A40392A3CD013DC342A31D006DC322A8A
S1131DF02AD02BDC312A00D101E6E2E1362A2BD0AD
S1131E0028DB372A2AD0382A00D0DAE10C24F7E577
S1131E10662A2BD00EDC622A24D004DC612A00D08E
S1131E20CFE10824ECE5642A1ED0652A00D0C8E17D
S1131E300B24E5E5682A1DD01ADB6A2A1CD06B2A1C
S1131E4000D0BEE11224DBE50324D9E50424D7E560
S1131E500524D5E50124D3E50924D1E50724CFE5FC
S1131E600D24CDE50224CBE50A24C9E51024C7E5F9
S1131E700F24C5E50E24C3E51124C1E53F49002024
S1131E8001F0D2F8FFF76FFB3D4B18601A683D4B29
S1131E909A4202D1234B3A4A1360394B00201A6804
S1131EA0394990E13949002001F0BEF8FFF75BFBA6
S1131EB038603A68334B9A4201D11A4B3B603A6816
S1131EC0002033497FE13349002001F0ADF8FFF7EA
S1131ED04AFB3060326800202F4974E12F4900200A
S1131EE001F0A2F8FFF72AFB09902D490020099A76
S1131EF069E1C046C0610000DB610000F9610000D7
S1131F001662000035620000546200007F62000027
S1131F105F6B00005E6800009A680000446A00007D
S1131F20366B000010270000556B00009262000021
S1131F309D620000CC620000FE6200002F6300007E
S1131F406063000090630000BE630000ED63000066
S1131F501C6400004A64000079640000A764000067
S1131F60D7640000056500001E6500004C65000094
S1131F7074650000A1650000CE650000FE650000E8
S1131F800CFEFF1F0F2700002C6600004C660000AB
S1131F907A66000094660000C3660000DE660000F6
S1131FA0146700008949002001F03EF8FFF7C6FAE3
S1131FB0071C874E3A1C311C002001F045FA854964
S1131FC0002001F031F8FFF7B9FA12AD021C2870B5
S1131FD0311C002001F038FA992F10D12A787E495B
S1131FE0099B002001F030FA2A780A20099900F0B0
S1131FF03DFA021E00D103E500207849E3E027AE54
S11320003780FA27764B0A981B68BF002893FEF79F
S113201053FE0B98FEF7D2FC381C01F031FB24214F
S11320206B465B181B7813AA137001230095019368
S113203002970020311C02F065FA021E03D0002032
S1132040684901F001FAFEF7CFFCD9E466490020A3
S113205000F0EAFFFFF787FA83B20A931A1C002004
S11320606249B0E0FFF704FBCAE4099A6049002022
S113207001F0EAF900F0F3FF5E49051C002000F0CE
S1132080D3FF00F0ECFF5C490C90002000F0CCFF83
S113209000F0E5FF59490D90002000F0C5FFFFF75F
S11320A062FA5749071C002000F0BEFFFFF75BFAF5
S11320B05449061C002000F0B7FFFFF754FA5249B8
S11320C00E90002000F0B0FFFFF738FA0B9B0F9042
S11320D001934E49221C099B00960297002001F0AF
S11320E0B3F92B1C0C9A303B303A00920D9A1D1C0C
S11320F0303A511E8A4101920A9A6B1E9D41049204
S11321006A4602970396128FEBB205920F9A201C2F
S1132110069209990B9AFEF7E1FF71E43C4900200D
S113212000F082FFFFF70AFA27AF38703949002020
S113213000F07AFFFFF717FA6B4630229B181E78DF
S1132140051C3B786C2E16D10B9A002000920A9A3B
S1132150314901922A1C01F077F90026AE4200DBD6
S11321604EE427AB1A780023FF2000930121FFF7E8
S11321701BFA0136F2E70A9A0020009227492A1C2A
S113218001F062F90026AE4200DB39E427A8012100
S1132190FFF736FA0136F6E70A98FEF78DFD2FE4CD
S11321A0FEF7AAFD2CE40220002100F05FF827E4EA
S11321B0FFF746FA24E4FEF7CBFD21E400F034FFF8
S11321C01EE40020164901F03FF919E42B670000D2
S11321D05E670000746700009D670000CE67000022
S11321E00CFEFF1FEF670000106800003C68000051
S11321F0B7680000F16800001A6900003369000044
S1132200726900009E690000D6690000076A000038
S1132210676A0000866A0000A66A0000F86A000087
S1132220E26500001FB5041C01A9002002F03AFD7C
S113223001A8694602F074FC009B68461C1901A9B8
S1132240009402F0F5FB01A90122002002F056FDE2
S11322501FBD00000022034B1A608022024B1206AD
S1132260DA67704700A01C5804E100E010B50A23A7
S113227008286FD80C1CFEF77DF9051B283C486222
S11322806466570001F050FE0523012862D0FFF771
S1132290E1FF201CFFF7C6FF0020011C01F0D2FC67
S11322A0041C0020012101F039FA002C4FD150E028
S11322B001F03AFE062301284CD0FFF7CBFF201C87
S11322C0FFF7B0FF01200021E8E701F02DFE08230D
S11322D001283FD001F0AAFA002803D000200121F0
S11322E001F01CFA0220002101F0ACFC00282ED1E0
S11322F02FE001F019FE072300282BD0FFF7AAFFD7
S1132300201CFFF78FFF032005E0FFF7A3FF201C2D
S1132310FFF788FF0420002101F094FC041C01F065
S113232003FE0028C1D1BDE70820002101F08AFC8A
S113233000280CD10120011C01F0F0F909E005206E
S113234002E0062000E00720002101F07BFC0923C5
S113235000E00023181C10BDC223FF3308704B603B
S113236070470000FF2100B589B005AA031C117055
S113237003203F2B14D80B491370087806A9088052
S113238009480A4B00684860FA2000930123400082
S113239001930290002002F0C2F8431E98414000CD
S11323A009B000BDE4FFFF1F0CFEFF1FECFFFF1F81
S11323B0014B08704B60704701700000FF2100B5AD
S11323C089B005AA1170011C4039031C032012298D
S11323D014D80B491370087806A9088009480A4BD9
S11323E000684860FA2000930123400001930290A2
S11323F0002002F094F8431E9841400009B000BD4B
S1132400240000200CFEFF1F2C000020014B08704C
S11324104B607047010E0000FF2100B589B005AA8A
S1132420031C117003203F2B14D80B491370087838
S113243006A9088009480A4B00684860FA200093FE
S11324400123400001930290002002F068F8431E2B
S11324509841400009B000BD600000200CFEFF1F41
S113246068000020C223FF334360704773B58126A0
S11324700025134C76002072301C6172A272E57242
S11324802573657301F0EEFD322001F0F9F8301C7C
S113249001F0F6FDFEF744FA03230093FA239B00B0
S11324A0291C084A0193281C074B02F07BFD20706D
S11324B0FEF764FA301C01F0D5FD281C76BDC04639
S11324C0E0000020E8000020EB00002008B5011C1B
S11324D000220B20FFF7CAFF08BDC223FF33087098
S11324E04B607047FF2300B589B005AA1370182804
S11324F004D8092806D206281AD803E0031C1D3B79
S1132500142B15D80C4B06A91B7810700B800B4BA1
S1132510FA201B6840004B60094B02900093012392
S11325200020019301F0FBFF431E9841400000E0AE
S1132530032009B000BDC046540000200CFEFF1F5C
S11325405C000020032308704B607047FF2270B5C5
S113255088B005AC2270021C0F3A031C03202A2AFF
S113256021D8237000266423104A06AD1278291C52
S11325702A800F4A301C126802930792633B221C84
S11325800096019601F0BEFF0A4BFA220093012344
S1132590520001930292301C291C221C01F0BFFF3F
S11325A0431E9841400008B070BDC0463C00002066
S11325B00CFEFF1F44000020052308704B60704789
S11325C0FF23F0B58BB007AF059006AD381C2A4940
S11325D002222B7003F000F8284B08AE1B783380DE
S11325E0274B1B687360059B012B2FD80024022303
S11325F03C707C702B700097022364270193311C7C
S11326002A1C013B0297201C01F07CFF6B461B7DBA
S1132610311C2B702A1C0123009401940297201C66
S113262001F070FF381C01F02BF8164B201C0093AE
S113263002230193F333FF330293311C221C231C26
S113264001F06DFFA04214D0022013E06B461B7D05
S113265000202B700B4B311C009302230193F333A6
S1132660FF330293F43B2A1CFF3B01F058FF002880
S1132670EAD100200BB0F0BD20590000C8000020B2
S11326800CFEFF1FD0000020014B08704B60704708
S113269001700000F0B5FA270025114B89B01B78B2
S11326A006AC23800F4B05AE1B687F003070079388
S11326B0211C321C009501950297281C012301F06E
S11326C021FF094B029700930123281C0193211C2D
S11326D0321C01F024FF431E9841400009B0F0BDB4
S11326E08C0000200CFEFF1F9400002005230870BE
S11326F04B607047F0B5022589B005AE2A1C301C2A
S11327001C4902F069FF1C4B06AC1B780020238097
S11327101A4B211C1B68021C0793FA233370EB3BF2
S113272073700096FA26760001950296031C01F058
S1132730E9FE0020124F211C009701950296021C0D
S1132740031C01F0ECFE0020211C00970195029669
S1132750021C031C01F0E3FE00200097031C0195FA
S11327600296211C021C01F0DAFE431E984140002F
S113277009B0F0BD22590000D8FFFF1F0CFEFF1F57
S1132780E0FFFF1F014B08704B607047010E000013
S1132790FF22F0B589B005AC2270021C0F3A031C6D
S11327A003202A2A20D8FA270026104A06AD1278D8
S11327B07F002A800E4A23701268291C0792012385
S11327C0221C009601960297301C01F09BFE094BD7
S11327D0029700930123301C0193291C221C01F051
S11327E09EFE431E9841400009B0F0BD80000020C9
S11327F00CFEFF1F88000020032308704B60704705
S1132800FF2300B589B005AA13706D280DD8502890
S113281015D2262804D81F2811D21D2825D10EE050
S1132820031C2A3B012B20D809E0D02807D004D868
S1132830031C703B052B18D801E0E02815D10C4B84
S113284006A91B7810700B800A4BFA201B68400005
S11328504B60094B0290009301230020019301F087
S11328605EFE431E9841400000E0032009B000BD15
S1132870140000200CFEFF1F1C0000202123087000
S11328804B607047FF23F0B589B005AC071C23707B
S113289003201D2F25D8144B06AD1B7800262B8052
S11328A0124B291C1B68221C079380232370753349
S11328B0FF330293F43BFF3B00960196301C01F07A
S11328C021FE0B4BFA22277000930123520001933F
S11328D00292301C291C221C01F021FE431E984147
S11328E0400009B0F0BDC0466C0000200CFEFF1F84
S11328F074000020014B08704B6070470180000099
S113290030B589B005AD28700820104B06AC1B7893
S1132910FF3023800E4B1B68079301F0A3FB0D4B84
S1132920FA22009301235200211C019302920020F9
S11329302A1C01F0F4FD041C0820FF3001F0A0FB68
S1132940201C441EA041400009B030BDCCFFFF1F35
S11329500CFEFF1FD4FFFF1F014B08704B60704734
S11329600500003000B50C4B89B01B7806A90B801C
S11329700A4B05AA1B6810704B60094BFA200093A0
S11329800123400001930290002001F0C8FD431E82
S11329909841400009B000BD480000200CFEFF1F14
S11329A050000020012308704B60704700B50C4BA9
S11329B089B01B7806A90B800A4B05AA1B68107006
S11329C04B60094BFA2000930123400001930290CD
S11329D0002001F0A4FD431E9841400009B000BD51
S11329E0C0FFFF1F0CFEFF1FC8FFFF1F014B087035
S11329F04B60704701003F00F0B502243B4D8DB0A1
S1132A00291C221C061C06A802F0E6FD2919221C1A
S1132A1007A802F0E1FD291D221C08A802F0DCFD34
S1132A2024226B4601279B1825216A461F70002328
S1132A30521813706A46032014752B2E54D82C4A4E
S1132A400AAD1278181C2A802A4A291C12686A6066
S1132A506A465676FA26760000930193029607AAF0
S1132A60231C01F04FFD002801D002203CE000901F
S1132A7001900296291C08AA231C01F043FD00289A
S1132A80F3D1009001900296291C06AA231C01F0A0
S1132A9039FD0028E9D1009001900296291C05AA6D
S1132AA03B1C01F02FFD0028DFD1134B019700934D
S1132AB00296291C05AA3B1C01F031FD0028D4D143
S1132AC0009001900296291C07AA231C01F01AFD0C
S1132AD00028CAD1009001900296291C09AA231C3F
S1132AE001F010FD0028C0D10DB0F0BD2459000044
S1132AF0300000200CFEFF1F38000020014B08703E
S1132B004B6070470100C00FF0B502243B4D8DB0FF
S1132B10291C221C061C06A802F05EFD2919221C91
S1132B2007A802F059FD291D221C08A802F054FD33
S1132B3024226B4601279B1825216A461F70002317
S1132B40521813706A46032014752B2E54D82C4A3D
S1132B500AAD1278181C2A802A4A291C12686A6055
S1132B606A465676FA26760000930193029607AADF
S1132B70231C01F0C7FC002801D002203CE0009097
S1132B8001900296291C08AA231C01F0BBFC002812
S1132B90F3D1009001900296291C06AA231C01F08F
S1132BA0B1FC0028E9D1009001900296291C05AAE5
S1132BB03B1C01F0A7FC0028DFD1134B01970093C5
S1132BC00296291C05AA3B1C01F0A9FC0028D4D1BB
S1132BD0009001900296291C07AA231C01F092FC84
S1132BE00028CAD1009001900296291C09AA231C2E
S1132BF001F088FC0028C0D10DB0F0BD2A590000B6
S1132C00D40000200CFEFF1FDC00002037B50E248A
S1132C10FF34051C201C01F025FA0A2000F030FDC9
S1132C20201C01F02DFA0C2001F02AFA0123084A95
S1132C30002015700093FA239B000193011C054B9F
S1132C4002F0B0F9051C201C01F00CFA281C3EBD52
S1132C5010010020F0000020C02310B58024534A46
S1132C609B001360524A64001360FDF759FE514BF8
S1132C70201C1C60504B1C60504B1C6001F0F2F98E
S1132C80642000F0FDFC201C01F0FAF9642000F03F
S1132C90F7FC201C01F0E6F9642000F0F1FCAE2002
S1132CA0FFF7B4FFA020FFF7B1FF7220FFF7AEFFDC
S1132CB0A120FFF7ABFF0020FFF7A8FFA220FFF73A
S1132CC0A5FF0020FFF7A2FFA420FFF79FFFA82085
S1132CD0FFF79CFF3F20FFF799FFAD20FFF796FF1A
S1132CE08E20FFF793FFB020FFF790FF0B20FFF734
S1132CF08DFFB120FFF78AFF3120FFF787FFB32054
S1132D00FFF784FFF020FFF781FF8A20FFF77EFFA3
S1132D106420FFF77BFF8B20FFF778FF7820FFF715
S1132D2075FF8A20FFF772FF6420FFF76FFFBB2057
S1132D30FFF76CFF3A20FFF769FFBE20FFF766FF3D
S1132D403E20FFF763FF8720FFF760FF0620FFF7B1
S1132D505DFF8120FFF75AFFFF20FFF757FF822016
S1132D60FFF754FFFF20FFF751FF8320FFF74EFFCB
S1132D70FF20FFF74BFFAF20FFF748FF2620FFF7A8
S1132D8045FF0120FFF742FF2520FFF73FFF00200A
S1132D90FFF73CFF0020FFF739FF5F20FFF736FF06
S1132DA03F20FFF733FF002010BDC046209014548D
S1132DB02490145434A014543090145400A0145487
S1132DC00269C3689A4203D880681018013800E089
S1132DD0501EC01A7047F7B58368C668051C406862
S1132DE00191141C9F1B8019974203D902F0F4FB34
S1132DF0A4190AE001993A1C02F0EEFB019BE41BC2
S1132E00D9196868221C02F0E7FBEC60F7BD0023C7
S1132E10F7B5061C171CC568019100933369B468A3
S1132E20AB4200D81B19013B5B1B641BBC4200D99D
S1132E303C1C9C4200D91C1C7368221C5819019923
S1132E4002F0CAFB009B2D191B190093019B3F1B29
S1132E501B190193B368EB1A5A1E93415B421D4040
S1132E60F560002FDAD10098FEBD0000022310B5F2
S1132E70104C114A23616361104BA261E36180230A
S1132E80A2640F4A5B002362E26400231022A3625F
S1132E906362E362A3656365E3652265E01D094936
S1132EA002F05CFC201C084902F058FC2023A371AA
S1132EB010BDC04640020020916B0000400100207C
S1132EC0300100209A6B00009E6B0000F0B5294B86
S1132ED0171C1A7885B0009001910293002A01D141
S1132EE0FFF7C4FF1823009A00255343029AD3180E
S1132EF01A1C503252689C6D039294421BD91B6D6C
S1132F003D1C1B1B9F4200D91D1C1826009B2A1C1C
S1132F105E43029B01989E19F36C7F1B191902F002
S1132F205BFB019B64195B190193336DE31A5A1E11
S1132F3093415B421C40039B1E1BBE4200D93E1CB6
S1132F40002E0CD01823009A01985343029AAD190D
S1132F50D318D96C321C091902F03EFBA419002DB8
S1132F6005D01823009A5343024AD3189C65281CA1
S1132F7005B0F0BD4002002010B50B1CEFF3108427
S1132F80012181F31088191CFFF7A0FF84F3108836
S1132F9010BD0000F8B51823451C5D434343141CC1
S1132FA0134A0E1CD018C76A5519012F0FD0002FD1
S1132FB007D0022F17D1221C281CFFF728FF041C5E
S1132FC014E0281CFFF7FCFEA0420ED305E0281CE9
S1132FD0FFF7F6FE844200D9041C281C311C221C75
S1132FE0FFF7F9FE02E0002400E03C1C201CF8BDC1
S1132FF040020020F8B50B4B071C1B780E1C151C57
S1133000002B01D1FFF732FFEFF31084012181F38C
S11330101088381C311C2A1CFFF7BCFF84F310886D
S1133020F8BDC0464002002038B5051C081C0C1C25
S113303002F09CFB211C021C281CFFF7DBFF38BD9F
S113304013B56B46DC1D0020211C0122FFF794FF01
S1133050012801D1207801E00120404216BD08B5C5
S1133060FFF7EEFF0028FBDB08BD0000F7B5164CA8
S113307001932378051C0F1C161C002B01D1FFF7AC
S1133080F5FE23699D421CD2EFF31082012181F3E6
S11330901088002D0CD01823691C59436B436750CA
S11330A061184E600199E31819620021996259620E
S11330B018235D43089B6419E36282F3108800209F
S11330C001E001204042FEBD40020020826810B5AC
S11330D0041C4068531C834205D820688154A360B3
S11330E0E3680133E360A26863689A420CD1206903
S11330F02168FFF77FFFA368984203D001235B4256
S1133100E36001E00023A36010BD0000F0B5051CDE
S11331101F1C081C012685B00A9C00910192019B8A
S1133120984204D30199FDF739FA0136F7E702967C
S1133130BE4200D2029701230B9A1A40039218D17F
S1133140002C01D1002414E00B9B20269B070DD5F5
S1133150002F0BD1103609E0281C311CFFF7B6FFF5
S1133160EB68013C002B04DB002CEBD0029BA34258
S1133170F2D3EB68002B35DB0126012F01D9013F87
S113318006E00098311CFDF709FA019B984208D328
S1133190019B5E43F1E7301C0199FDF7FFF9061E20
S11331A010D00098311CFDF7F9F9331C4343009A01
S11331B0D31A00930C4B195C281CFFF787FFEB68AC
S11331C0002BE8DA039B002B0CD0002C0AD0029BC6
S11331D0A34207D2281C2021FFF778FFEB68013CAB
S11331E0002BF2DA05B0F0BDA56B0000F0B59FB07E
S11331F00EAB099340230A930023161C06900B93ED
S11332000D900C930B784C1C002B04D10C9B039356
S1133210002B22DC15E1252B16D1002502314F1E8F
S11332203B782B2B0CD003D8232B27D1082308E081
S11332302D2B03D0302B21D1022302E0012300E007
S113324004231D430131EAE7191C09A8FFF73EFFD7
S1133250211C0C9B002BD5DAD8E70B9A002A03D04B
S113326006980EA9FFF7C6FE0C9B03930B9B0493D1
S1133270049A039B944663440C93E2E000243A7856
S1133280131C303B092B05D80A235C43303C01371F
S1133290A418F4E7002303932E2A0DD101373A78BA
S11332A0131C303B092B07D80A23039901374B43DE
S11332B0303B9B180393F2E7397804230A1C9A43A2
S11332C0682A01D10137F7E7642926D008D858299C
S11332D000D195E063291AD0252900D0AFE0ABE0F6
S11332E0732900D195E00DD8702900D0A7E0326889
S11332F00021131D3360082301910093116809A86C
S1133300102296E0752971D0782979D097E0336836
S113331019681A1D3260C9B28EE033681A1D1B6821
S11333203260DA1798180493012350400593092852
S113333005DD0A21FDF7C2F9059B0133F6E7059B7C
S1133340039A934200D20592002C05D0049B002BD3
S113335001DB6B0700D5013CAB0702D5039B002BB7
S113336010D0EB070ED4002C01D100240AE0059BF9
S1133370A34207D209A82021FFF7A8FE0C9B013C19
S1133380002BF0DA0C9B0793002B58DB049B002BDB
S113339004DA5B42049309A82D2103E06B0703D5EB
S11333A02B2109A8FFF792FE0C9B002B47DB03237C
S11333B02B40022B11D1039B002B0ED1002C01D1E9
S11333C000240AE0059BA34207D209A83021FFF795
S11333D07DFE0C9B013C002BF0DA0C9B0593002B2B
S11333E02DDB0094019509A8049906E03368009444
S11333F001951A1D1968326009A80A22039B18E076
S1133400336800941A1D0195326009A819681022C6
S1133410F4E733681A1D32601C68217801340029EE
S11334200DD009A8FFF752FE0C9B0393002BF4DA8E
S113343005E0FFF76BFE02E009A8FFF747FE791CE1
S113344007E70C981FB0F0BD0EB403B503AB02CB75
S113345001AA0193FFF7CAFE02B008BC03B01847E3
S113346008B5002000F01AFE08BD08B5002001F0E0
S1133470A3FC08BD082110B5164B9A780A4202D065
S11334809A780A439A70882200212220124B520112
S11334909950124A10708020114A400298501868BE
S11334A0104A024010481A601C58104A2240C02496
S11334B0A40422431A5080220D4B19721A767F3AC3
S11334C019705A700B4A11700C2299791142FBD170
S11334D010BDC04600D007400070044000E0074023
S11334E044100000FFFFF3FF04100000FFFFFFF093
S11334F00040064000500640154B164810B5191EF2
S113350081420CD00022144B9B089B009A4203D0AA
S113351084588C500432F9E7104B996001E00F4A4B
S1133520936000230E4A0F49891A8B4204D0D45C5D
S11335300D48C4540133F8E700230C4A0C49891A96
S11335408B4204D00024D01804700133F8E710BD76
S113355000000000000000000000000000ED00E09A
S1133560106D0000B06E000000FEFF1FA0FFFF1FE3
S1133570EC03002000234170436003708360181C37
S1133580704710B54378041C0120FF2B08D000F0CD
S1133590FDFA63780133DBB2637000F0EBFA0020CC
S11335A010BD0020704738B5041C0D1C00F0EEFA65
S11335B0E1682943E16000F0DDFA002038BD000035
S11335C000220A4B9A641A1C40329A631A1C303245
S11335D09A621A1C20329A611A1C10329A60044AA8
S11335E01360044B9B60DB607047C046CC02002034
S11335F0C8020020B80200200022024B1A6018689A
S113360080B270470C007C5038B54378041C0D1C04
S1133610002B0BD0002500F0B9FA6378013BDBB234
S11336206370257000F0A6FA281C28E00220002907
S113363025D02378002B15D0FFF7DEFF6368A2683E
S1133640984201D3C01A03E0C01A80235B02C01859
S1133650824213D200F09AFA0023237000F08AFA0F
S113366002200CE04B1C09D000F090FA01232370D7
S113367000F080FAFFF7C0FFA5606060032038BD4A
S113368038B5051CFFF7B8FF041CFFF7B5FFA042CF
S113369001D3001B03E08023001B5B02C01885429A
S11336A0F3D238BD08B5012801D100F06FFA08BD86
S11336B008B5012801D100F05DFA08BD10B5FFF787
S11336C07FFF01230020084A08491360084A094C77
S11336D01060086004212160074C216007490B60D9
S11336E007490860136010BD3880045000008450FE
S11336F000000450000004510400045104000C5064
S11337000000045310B5044C206021710020A26015
S11337102373637310BDC0461C030020F0B587B04B
S11337206B4602901B7A05AC23706B4603911B7B9E
S11337303D4D63702B79029A0420934271D92B7BFF
S11337406B730123A37000230193374E0093337BE3
S1133750009A371C93421AD9009BB2689B009B586D
S1133760002B10D01A79D2070DD51A68201C99683D
S11337709047002807D06B461B787373039B002B7C
S11337803AD005230193009B0133DBB2DDE7019EB0
S1133790002E02D0039B012B2FD10120FFF782FFC3
S11337A00C20029B58432B68181800F0B9F86B469C
S11337B01B7A01206B71FFF77BFF02230025A370A6
S11337C03B7BAB4216D9BA68AB009B58002B0ED09A
S11337D01A7992070BD51A68201C9968904700281B
S11337E005D0039B7D73002B1AD00623019301356A
S11337F0EDB2E5E7019814E005260023009FA370CD
S1133800013FFFB2FF2F09D0AA68BB009B58002BD1
S1133810F6D01A68201C99689047F1E7301C00E044
S1133820062007B0F0BDC0461C030020014B5879A8
S11338307047C0461C03002013B500210378041C04
S11338400191022B07D0032B0BD0012B0ED102794F
S1133850191C134801E00279114801AB01F074F816
S113386008E001A90E4801F0B1F803E00C4801A9F1
S113387001F04EF8002812D1A3790A4ADB01DBB229
S113388013706378084A5B00DBB21370A278074BAD
S11338901A70E278064B1A706279064B1A7016BDDC
S11338A000400640184086530040865000400650B1
S11338B001400650184016501F22802302405B0529
S11338C0D2051A43044943099B005B181A43106844
S11338D0431E9841C0B27047288004401F228023B1
S11338E002405B05D2051A43034943099B005B1858
S11338F01A43002313607047288004401F2280214C
S11339000240D30549051943430904489B001B1889
S113391019430123081C9340036070472880044026
S11339200022072373B5041C104D0093281C131C9C
S1133930012101F033FA201CFFF77EFF0022637A95
S1133940217A0093281C131C01F028FAE379084A11
S11339509B041360074BA17A1D68281C01F052F8E0
S1133960281CE17A01F05DF8002076BD0070044067
S113397000700C59046C000008B5054800F08AFF7B
S1133980044B1968C9B20131FCF708FE08BDC046F2
S11339900040064044801C5E08B5054800F07AFFEC
S11339A0044B1968C9B20131FCF7F8FD08BDC046E3
S11339B00040064044801C5E08B5054800F06AFFDC
S11339C0044B1968C9B20131FCF7E8FD08BDC046D3
S11339D0004006404480145808B5054800F05AFFDA
S11339E0044B1968C9B20131FCF7D8FD08BDC046C3
S11339F000400640448014580C4B1B68DBB2022B79
S1133A000DD0032B0ED0002B01D000200CE0802120
S1133A10074A09021268101E8842F6D104E0054BD9
S1133A20186801E0FA2080007047C04600700C5905
S1133A30440300204803002008B5FFF7DDFF08BD5C
S1133A4008B5054B186800F0E4FF0023984201D044
S1133A50024B1B68181C08BD046C000044030020C2
S1133A6008B5044B01201B68DBB2002B01D0FFF723
S1133A70E7FF08BD0480045210B5122831D80C1C8D
S1133A80FCF778FD0A0A0D122F15181B2F2F1E2084
S1133A902F2F2F2F23272B00FFF76EFF01E0FFF7B7
S1133AA07BFF206000201FE0FFF786FFF9E7FFF7A8
S1133AB093FFF6E7FFF7A0FFF3E7FFF7C1FFF0E797
S1133AC00A4B0CE0FFF7CCFFEBE7094800F0E2FEFD
S1133AD0E7E7074800F0C8FEE3E7FA239B0023600A
S1133AE0E0E7002302200B6010BDC046006CDC023E
S1133AF00040064008B5024B185CFFF7FFFE08BD06
S1133B00B56B000008B5024B185CFFF7D5FE08BD85
S1133B10B56B000008B5BB20FFF7CEFE08BD08B5A5
S1133B207620FFF7EBFE08BD08B57620FFF7D6FE3A
S1133B3008BD08B57620FFF7BFFE08BD08B56620AE
S1133B40FFF7DCFE08BD08B56620FFF7C7FE08BD19
S1133B5008B56620FFF7B0FE08BD08B59420FFF74E
S1133B60ABFE08BD08B5024B185CFFF7A5FE08BD07
S1133B70B76B0000044A1368002B04D0013B1360A8
S1133B80002B00D162B670472C03002072B6024AA3
S1133B9013680133136070472C03002010B50B4BDE
S1133BA00B4A1278002A04D1013B002BF8D10320E0
S1133BB00AE0064C074801F087FB012803D0013CCA
S1133BC0002CF7D1F3E7002010BDC046EA03000043
S1133BD002D0075100E0074010B5064C064801F03A
S1133BE073FB042804D0013C002CF7D1032000E02F
S1133BF0002010BDEA03000000E00740F7B5071CF1
S1133C000E1C151C01930120002F18D0002916D07A
S1133C10FFF748FD0A4C0021201C102201F0E5FCAE
S1133C2027602671002D06D06B461B79A56023738F
S1133C306B461B7963730120FFF73AFD0020FEBD3C
S1133C4030030020F0B5B24C8BB002900191237B7D
S1133C5001206373FFF726FD2379029A934204D867
S1133C600120FFF725FD022050E1029A236892000B
S1133C70D6586B461B7907AC357823726B461B7A92
S1133C802A1C237002239A4366600392012A01D0FE
S1133C90052D0AD101219F4801F068FA002809D1B5
S1133CA00120FFF705FD012030E1072D02D99948D5
S1133CB00321F1E70123637200240094944F009AD6
S1133CC03B7B93421AD9009BBA689B009B58002BFC
S1133CD00FD01A79D2070CD51A6807A899689047AB
S1133CE0002806D06B461B7804247B73019B012BB0
S1133CF004D1009B0133DBB20093DFE70120FFF71F
S1133D00D7FC854800F0EAFD039B012B1DD1013847
S1133D10C0B2022811D8FFF75FFE804B98420CD83E
S1133D20FFF72AFE7E4FB84207D8FFF745FEB84298
S1133D3003D8FFF731FEB84207D9019B012B01D10B
S1133D40062407E0002C05D1FAE7019B012B52D091
S1133D50002C50D00120FFF7A5FC002307AE009DE6
S1133D607372013DEDB2FF2D40D0694BAA009B68F0
S1133D70D358002BF5D01A79D207F2D51A68301C23
S1133D8099689047EDE7072205AB1A7000225A7034
S1133D90F2789A703279DA702B1C083B05A9022B51
S1133DA003D873798B71B379CB717378002B00D0FE
S1133DB084E0584801F00EFA002800D00324002DB6
S1133DC000D08AE0FFF7EAFE0024002800D09DE03E
S1133DD00120FFF767FC6B464D4E1B7A0025B37339
S1133DE0022307AF7B72337BAB427CD80120FFF701
S1133DF05FFC201C8AE003200A2D00D986E0281CE1
S1133E00FCF7AEFB06080A1940583339C1282D00C7
S1133E10002250E003224EE03E4801F055FA01280A
S1133E2007D03C48002101F0B1F9FFF7B7FE041EAA
S1133E306CD101223FE0374801F046FA042807D04C
S1133E403448022101F0A2F9FFF7C6FE041E5DD139
S1133E50042230E0072205AB1A70063A03E0072279
S1133E6005AB1A70043A5A7096E7022205AB1A7031
S1133E70013A1A7104E00222012105AB1A7019718A
S1133E805A7189E70222002705AB1A702148013ACA
S1133E901A715F7101F018FA012800D17CE71D48FE
S1133EA0391C01F073F9FFF779FE041EBC4200D1FE
S1133EB072E72BE0052205AB1A706DE7012D00D8DF
S1133EC077E7B2780220174B002A02D01A6902431E
S1133ED001E01A6982431A616BE7012D00D077E78C
S1133EE0FFF77AFE70E7B268AB009B58002B0AD04C
S1133EF01A79920707D51A68381C996890470028E0
S1133F0001D0052475730135EDB26CE70BB0F0BD3B
S1133F103003002000E007400040064040420F000C
S1133F2080841E0000ED00E008B5064801F0CCF9DD
S1133F300023012803D00133042800D00A33181CBD
S1133F4008BDC04600E00740F7B5FF2403681C4ADB
S1133F501D0A25401C40AB009F581A4A061C9B585A
S1133F60281C0193FFF7C6FD211C0022381C01F018
S1133F70B3F9019BA4001C19842332795B05234304
S1133F8052001A60802372795B0523431A609023E0
S1133F90B2795B05234312011A60F3790A4A144388
S1133FA01A042260002B0AD0084B5A5D002A06D05E
S1133FB01F23134001229A40131C054A1360F7BDC6
S1133FC0106C0000086C000000001818186C000049
S1133FD000E100E0F8B5FF24051C0368114A180A43
S1133FE020401C4083009F580F4A9E58FFF782FDD3
S1133FF0381C211C012201F06FF96A68381C211C4D
S113400001F07AF988232A7AA40034195B05234342
S113401092001A6098235B051C436B7A9B01236012
S1134020F8BDC046106C0000086C000038B50C1CCC
S1134030002802D1002C09D112E003680133F9D021
S1134040051C0835FFF780FF281CF6E723680133B9
S113405006D0251C201C0C35FFF7BCFF2C1CF5E7F3
S113406038BD0000FF22030A1340024001209040A3
S113407002499B005B5858607047C046106C0000B2
S1134080FF22030A134002400120904002499B0092
S11340905B5898607047C046106C000008B5084B28
S11340A08200D35894220233520513431B78002B09
S11340B002D000F041FA01E000F096FA08BDC046D3
S11340C0BC6B0000031C80220C33520513431B7885
S11340D0002BF7D00171704738B50D1C084B8000D8
S11340E0C458201C291C1830FFF78EFA0328F8D076
S11340F0002801D004232374207CC0B238BDC046FC
S113410040030020F0B589B00290161C82003748A5
S1134110059310580EAB019035481B7814580020B5
S113412007AA1080A27C8F0A04920122E274A2746E
S11341305A4253411E3FDBB203937B425F41FFB2BD
S1134140CDB2874202D0CBB29C460D0A00216D004D
S1134150EDB28F4204D1391C002E01D16B46197B7C
S11341600D4307AB1D700122002F02D062465A7026
S11341700222A360E2600198291CFFF7A3FF0298C2
S11341800F99FFF7A9FF237C002B0CD1002E0AD036
S1134190059BA660E36031780198FFF793FF0298CE
S11341A00F99FFF799FF237C002B16D1039B002B5B
S11341B013D0002F01D1002E0FD000230127A360BC
S11341C00198E76001F0F0F8391C01982943FFF7E2
S11341D079FF02980F99FFF77FFF0023E3746B4682
S11341E0207C1B7CC0B2A37409B0F0BDBC6B000082
S11341F040030020104A830010B598580F4A9C5879
S1134200E37C002B05D0237C052B02D0237C042BDC
S113421009D19822831C5205134300221A7001F01D
S1134220D5F801236374A37C002B03D0201C183021
S1134230FFF7A7F910BDC046BC6B00004003002087
S1134240F7B5194B8700FB5801250093174BFE580F
S1134250002E26D10C1C24220190081C311C01F0D4
S1134260C4F9201C311C1830FFF784F90198FFF7BA
S113427065FC009801F048F80C4B019AFC500C4B7B
S11342809A5C1F2313402A1C9A40131C094A13608A
S11342909C22009B52050233134380226574351C13
S11342A01A70281CFEBDC046BC6B000040030020F1
S11342B0B96B000000E100E0F7B59C220027051C63
S11342C00D4E8400A359520501930C4BE35802335D
S11342D013431F70FFF737FC094B01985A5D1F23E6
S11342E0134001229A40131C064A1830D367FFF783
S11342F058F9A751F7BDC04640030020BC6B00002D
S1134300B96B000004E100E00A4B800070B5C558A9
S1134310094BC6584B68726993420AD00C1CFFF7CC
S11343204BFB0023011C6268281C00F0FBFF636840
S1134330736170BDBC6B000040030020F0B587B012
S11343400FAC334F334D267884006559E459677CAC
S1134350002F02D10320207458E0002E01D11E2723
S11343600E9705930023A674E360A360237423606F
S11343706374071C04920391FFF7C6FF9023102176
S1134380AA1C5B05134319708421EB1C49050B43DC
S11343900221197098235B05134302934023029A68
S11343A0281C137001F000F8039B381C19880123A2
S11343B000930E9B049A0193059BFFF7A3FE0D9BAC
S11343C0002B15D0237C002B0FD10C9B281CA36041
S11343D00D9BE3600C9B1978FFF774FE002E13D03D
S11343E0381C0E99FFF778FE0EE0237C042B0BD1CA
S11343F000230126029A1370EB785B09334202D042
S1134400281C00F0E3FF6674207CC0B207B0F0BD46
S113441040030020BC6B0000F0B58BB013AC2478D3
S1134420364E374D039484006559A459667C002E9A
S113443002D1032020745FE0039E002E01D11E36BA
S113444012960993109B00262360119BA66063605B
S11344506B461B7BE660A37426746674079108920E
S11344600490FFF751FF9023AF1C5B053B4305937A
S11344701023059A281C13708422EB1C5205134345
S113448002221A7098235B053B4306934023069A45
S1134490137000F089FF079B089A1988129B0096F5
S11344A001930498099BFFF72DFE227CD2B2B242FD
S11344B012D1059B11991A708C235B053B4301298A
S11344C000D108221A702B79039B002B12D0049878
S11344D01299FFF701FE0DE0237C042B0AD1069B01
S11344E01E700126EB785B09334202D0281C00F0D1
S11344F06DFF6674207CC0B20BB0F0BD4003002099
S1134500BC6B00001FB5069C0094079C0194089C9A
S1134510029401240394FFF711FF04B010BD1FB5EA
S1134520069C0094079C0194089C02940124039423
S1134530FFF772FF04B010BD842138B5244B82000C
S1134540D5584905EB1C0B4302211970214BD45853
S113455090226B1852051A431278E978D2B2890670
S113456034D5942149051943097800292ED0012A0C
S113457015D1EB78134202D0052323740CE0E368D1
S1134580013BE360002B07D0A368281C5A1CA260DF
S11345905978FFF797FD19E0FFF72CFE16E06268E3
S11345A0013A6260002A06D08C214905012A05D10E
S11345B00B43082204E0FFF71DFE02E000220B4338
S11345C01A7023685A1C22602A791A7038BDC046B2
S11345D0BC6B000040030020842303305B051843B8
S11345E00223037070470000902149050A1CF0B5AE
S11345F08F4B071C8000C55889B0EB1C0493EB78E3
S1134600EE78DBB20593F3B20693AB1D1A439446DE
S113461012789826D2B20792942252051A4314783B
S11346207605621E9441E2B2824C33430459A81CBD
S11346300090084301921A780178D2B2C9B203916A
S11346400199029000292FD0079900290CD010233A
S11346506246281C1370FFF7BFFF236BF8B20121D9
S1134660002B00D0DCE0E0E0002A1DD04022281C12
S11346701A70FFF7B1FF231C2C331B78002B02D1D7
S1134680009A16433370236B002B03D0F8B28021B9
S1134690626B9847E37D002B04D0201C80211830E6
S11346A0FEF781FF0A23BFE0069B281C9E1101230D
S11346B01E40FFF791FF0122059B1B11134219D0E5
S11346C09023049A5B05134310221A70002E04D021
S11346D0EB785B07DB0F10D11AE0082323702C342E
S11346E02278002A00D0A0E0982300995B050B43B0
S11346F01A709AE0002E16D0EAE71023029A13707B
S1134700236B002B6ED0F8B20221626B984769E0EC
S1134710029A1370236B002B03D0F8B20421626B4E
S113472098472B7981E0039B012B29D1EB78039ADD
S1134730134257D0029B1E702B79231C2C331B78F9
S1134740002B09D1019B002B06D19823009A5B050D
S113475013436A4612791A70236B002B03D0F8B204
S11347600821626B9847A37D002B04D0201C0821EC
S11347701830FEF718FF00236360E360237554E0EC
S11347802B79A268DBB2002A2AD02269137023692C
S113479001332361A368013BA360A368002B44D1C8
S11347A0019B002B13D1231C2C331B78002B06D127
S11347B09823009A5B0513436A4612791A70E37DC5
S11347C0002B04D0201C20211830FEF7ECFE00231F
S11347D063752361236BF8B22021002B20D124E0E0
S11347E0072321E06368002B1DD0E3681A782B1C93
S11347F080210C3349050B431B78002BF7D02A7119
S1134800E3680133E3606368013B63606368002B22
S11348100BD1E3602375236B002B06D01021F8B273
S1134820626B984701E00623237009B0F0BDC046CF
S1134830BC6B00004003002084235B0503431A780B
S113484000239A4209D0802301305B051843037882
S1134850012B01D0024B00E0024B181C7047C046EC
S113486080841E0000127A0038B5031C074A0833FE
S113487013431C78031C064A183313431B78E5B210
S1134880DCB2FFF7D9FF2C19E04038BD00009010CE
S11348900000101010B50D4A831D13431B78DBB2C2
S11348A0002B10D0012B08D1041CFFF7C5FF084BC7
S11348B008341C432378D84006E00020022B03D19F
S11348C0044B186800E0044810BDC04600000811FD
S11348D00000901044030020006CDC020B4A831D8E
S11348E013431B78DBB2012B06D0181E0CD0032017
S11348F0022B09D0052007E0802301305B05184313
S113490000784342584101307047C0460000081106
S1134910021C031C9C20183340050343802018709C
S11349200020064B134318700548931D03431B785E
S1134930D8B20028F8D1034B0B607047000008136D
S113494000000811006CDC02F8B5041C0D1C171CD7
S11349501E1CFFF7C3FF012802D1002D04D007E07D
S1134960022805D1012D03D1201C311CFFF7D0FFF3
S11349708022631C520513431D70842302225B05AD
S113498023431A70231C0C4A083313437A00D2B20F
S11349901A704022094B23431A70094AA31D13437A
S11349A01B78012BF9D1002D01D1064A00E0064AFB
S11349B03A4100203260F8BD000090100000081356
S11349C00000081180841E0000127A000A4B10B502
S11349D01C681A1C0123002C0CD08024074B0343B1
S11349E01C70074C831D23431B78022BF9D11368D9
S11349F00B600023181C10BD4403002000000813A2
S1134A00000008119C23C9015B051843C9B2017059
S1134A1070479C235B0518430078431E9841C0B23D
S1134A207047942349015B051843C9B2017070476C
S1134A3070B506680C1C301C2049FBF7AFFD1F49FC
S1134A40051C301CFBF730FE0E1C081CE12109017B
S1134A50FBF7A4FDE121E0800901301CFBF724FEF3
S1134A600E1C081C3C21FBF799FD3C212081301CC5
S1134A70FBF71AFE6E22124BA1722380FF322388A9
S1134A8095420BD9AD1A032201339BB22380B7217F
S1134A9013405A1E93414900CA1AF0E709499B077B
S1134AA000D109490123CA5C954201D8638003E01F
S1134AB00133AD1A0D2BF6D1A58070BD80510100D4
S1134AC0B2070000E76B0000DA6B000030B5114A52
S1134AD00188031C8A180020812A19D85A88541E78
S1134AE00B2C15D89C88651E1E2D11D8DD88172D1A
S1134AF00ED81D893B2D0BD89B7A3B2B08D88B07EE
S1134B0001D0054B00E0054B9B5CA3424041C0B281
S1134B1030BDC0464EF8FFFFE76B0000DA6B0000C3
S1134B2070B5124A838804889A186E23FF3363434E
S1134B304588D318A2089B180D4A6E00B25A9B18D8
S1134B40A20702D1022D00D8013B0B60E1233C22D5
S1134B50C4881B015C4303895343827AE3189A187F
S1134B600868044B4343D3180B6070BD4A05F5FF36
S1134B70C06B000080510100084B1A6880231B029F
S1134B809A4209D1A02310305B0518430368002B17
S1134B9002D10133FF3303607047C0464403002051
S1134BA0021C802110B500230124490510320A4358
S1134BB01460136090224360520504601C30024369
S1134BC01360882252050243136084225205024373
S1134BD008431360036010BD031C90221433520574
S1134BE0134300221A604260103201601A60704759
S1134BF003680B6070470000114B820070B5D558F4
S1134C008022104B92051A60041C281CFFF7C8FF71
S1134C10281CFFF7B1FF01201F22011C0A4B0B4E79
S1134C201B5D345D134099402240C0250B1C90400D
S1134C3007496D004B5148510B60086070BDC04678
S1134C40F86B00003C80845EF56B0000F46B0000A0
S1134C5000E100E0F7B50027114B8000C658081C9E
S1134C600D1C0197FFF732FF041EBC4216D001A9A8
S1134C70281CFFF755FF381CFEF7DEFE011C8020C0
S1134C800002814206D0FBF789FC011C0198FBF766
S1134C9085FC0190301C0199FFF79EFF201CFEBD8E
S1134CA0F86B0000F7B50025124B8000C4580E1CA9
S1134CB0201C01A90195FFF79BFF281CFEF7BCFEF1
S1134CC0051C8020000285420ED00B4B291C0434A5
S1134CD01C43FBF763FC2768019C291C4443B8B2BE
S1134CE0FBF75CFC20180190311C01A8FFF7A0FE23
S1134CF0F7BDC046F86B000000007810F0B5002640
S1134D00184B800085B0C458081C0F1C01920396F0
S1134D10FFF7DCFE051EB54201D100251EE0381C5C
S1134D2003A9FFF7FDFE301C2768FEF785FE011C72
S1134D3080200002814206D0FBF730FC011C03985E
S1134D40FBF72CFC0390039BBB42E6D3A3608823B0
S1134D501C345B051C43019B9B002360281C05B08D
S1134D60F0BDC046F86B00008822044B8000C35895
S1134D7052051C331343890019607047F86B000017
S1134D808822054B8000C358520514331343186816
S1134D90431E9841C0B27047F86B00006B46E02296
S1134DA01B78D2021B04134009071943014BC01896
S1134DB0016070474410000008B5084B8200D358C6
S1134DC090220333520513431B78002B02D000F0CA
S1134DD015F901E000F07AF908BDC046006C000046
S1134DE008B50C4B8000C2580B4B0021C3589C20C3
S1134DF003334005184311710170942040050343A7
S1134E001970137F8B4203D02032101CFEF7B9FBBC
S1134E1008BDC0464C030020006C0000F7B5061C1A
S1134E201C4B30220C1C8700081C0021FD5800F08C
S1134E30DCFB301CFEF773FEFEF7BEFD2060281C71
S1134E4000F0E1FA201C00212030FEF793FBEB1C5C
S1134E5001939023019A5B0513431022281C1A70B6
S1134E60032100F010FB281C002100F032FB0A4B48
S1134E70FC500A4B9A5D1F23134001229A40131CD5
S1134E80074A13609823019A5B05134340221A7062
S1134E90F7BDC046006C00004C030020FC6B000012
S1134EA000E100E0F8B50D4E84000D4BA759051C38
S1134EB0E05800F0A8FA381C2030FEF772FB094BCA
S1134EC0281C5A5D1F23134001229A40131C064AD2
S1134ED0D367FEF729FE0023A351F8BD4C0300203D
S1134EE0006C0000FC6B000004E100E00A4B800051
S1134EF070B5C658094B0C1CC358151C301C1A68D5
S1134F00096800F087FA28602179301C6279A37956
S1134F1000F0CCFA70BDC046006C00004C030020C9
S1134F20F7B51E4A83009C581D4A9E5822790423D3
S1134F30002A31D1071C002902D001AAFFF7D6FFAD
S1134F40982300214020F21C5B051343197018704C
S1134F5025698D4203D1381CFFF742FF1BE0012372
S1134F60237194235B053343A16119780723002936
S1134F7012D0A368191E02D019780133A360B1714D
S1134F802369013B2361A3690133A3619C235B056E
S1134F901A43802313700023181CFEBD4C03002009
S1134FA0006C0000F8B5134F134C85002C59ED59D3
S1134FB00127069E2777A2602661E3606661FFF7FA
S1134FC0AFFF061E14D1201C07992030FEF71CFBEE
S1134FD00328F8D000280BD09C210022EB1C4905A3
S1134FE0194322710A709421032649050B431A7050
S1134FF0301CF8BD006C00004C03002010B51E4BA3
S11350008200D3581D4951581A79002A32D05A695E
S1135010002A11D09C2252050A431278002A0BD090
S11350208A79DC68D2B2002C03D02270DA680132AB
S1135030DA605A69013A5A611A69002A12D0942234
S113504052050A431278002A0CD09A68141E02D022
S1135050147801329A608C711A69013A1A619A695A
S113506001329A611A69002A04D15B69002B01D1CB
S1135070FFF7B6FE10BDC0464C030020006C0000D4
S1135080104A80008158002208B50F4B0331C358E1
S1135090581CC2779C2040050843DA621A701A83B0
S11350A05A629A621A6302709420400501430A709E
S11350B01A1C38321278002A03D0181D0121FEF779
S11350C072FA08BD006C00004C03002038B5254B73
S11350D08200D35824495258591CC97F00293FD013
S11350E0D96A002916DB942149051143097800295E
S11350F010D0596A1C7F002905D0DD6A002D02DD1D
S11351000C78013159629471D96A0139D962596BA9
S113511001315963D96A002905DA9424D11C640544
S1135120214300240C70196B002911DD9C214905D1
S11351301143097800290BD09279996AD2B20029D7
S113514003D00A709A6A01329A621A6B013A1A639E
S1135150DA6A002A04DC1B6B002B01DCFFF790FFEA
S113516038BDC0464C030020006C0000012903D068
S1135170032909D1842300E094235B0518430078B4
S1135180431E9841C0B200E000207047034B013039
S113519049011843C9B201707047C0460000881223
S11351A0942302305B0549011843C9B2017070476A
S11351B0034B023089011843C9B201707047C046DD
S11351C0000008138C2302305B05C9001843C9B2E0
S11351D001707047F7B5384EC21C164337780B7808
S11351E0FFB20122072B65D8041C181C0D1CFBF709
S11351F0C1F904192A0D192A2A3A00232F48013427
S1135200044323703378012BFCD152E00322012F95
S113521050D1402329480134044323703378042BAC
S1135220FCD146E00021012B01D004230221307877
S1135230032298423ED1201CFFF7A8FF0421204AF4
S113524013698B4333E00227BB4207D100270B7954
S1135250BB4203D04979201CFFF7AAFF1948013447
S11352600443277019E004231649621C0A4313708F
S11352706A78A31C0B431A706B78002B06D1AB78A9
S1135280002B03D0E978201CFFF78AFFAB79002BB1
S113529003D0E979201CFFF795FF04213378084AED
S11352A0DBB20193019B0133019313690B43136137
S11352B030BF0022101CFEBD000030100000881218
S11352C000ED00E000001010024B0330184300789A
S11352D0C0B270470000301014308023012A04D17A
S11352E08A401B051843026005E0DB0418430123D0
S11352F08B40D9430160704701238B40002A01D0C1
S1135300436000E0836070470023C222037043704F
S11353108370C37043718371C37103724272837269
S1135320C3727047F0B5002789B00393FA230125AF
S11353303C1C9B0053430690079102936D420197D6
S11353400123A3400493174B9E1CCA330593049B6B
S1135350318807985943FBF721F9029B029AC31A33
S1135360824200D9131AAB4204D2B21E17780194B8
S11353701D1E03D0059B04369E42E8D10134032C44
S113538001D0002DDCD1039B002B00D01D603F23F6
S11353901F40019B9B011F43069BFFB25F7009B036
S11353A0F0BDC0461A6C0000942302305B05034331
S11353B01B78002B04D088235B051843042303E0E7
S11353C080231B0518433023037070479422831CE9
S11353D052051A431278011C0220012A12D180229C
S11353E0D2041343CF221A708022D2002023C8781B
S11353F0034004D0013A002A03D0C046F6E7181C43
S113540000E0092070470423C370002383704370B5
S113541003717047F0B5130B89B001250493082379
S113542000266D4203935B1907900591069202933F
S113543002270024731C191C069879430193FBF777
S1135440ADF8059B834206D31B1A9D4203D91D1C4C
S113545004900394029601347F00092C02D0002D9D
S1135460E8D104E0072E02D0019E002DE0D1702285
S1135470029B04981B011340039A1343079ADBB25F
S1135480537009B0F0BD8422C31C52051A43012392
S11354900B405B00DBB2137090238907C90F5B05D7
S11354A0023009011843C9B20170704710B58C2449
S11354B003306405C9000443C9B2217088219200F5
S11354C049050143D2B20A70802252051043037089
S11354D010BD8023012202305B0503430A401A7089
S11354E08C238907C90F5B05C9001843C9B2017031
S11354F07047011C002008B5021C031C00F03EF993
S113550008BD0000014B18687047C04698FFFF1F94
S1135510084B10B5041C002B02D0002100F08AF9BE
S1135520054B1868836A002B00D09847201C00F0B4
S1135530F5F9C04635580000E46C000038B5074B57
S1135540074C1D1CE41AA410002C04D0013CA30039
S1135550EB589847F8E701F0CDFB38BD0C6D00001F
S1135560106D00000E4B70B500251E1C0D4CE41A86
S1135570A410A54204D0AB00F35898470135F8E7CE
S113558001F0B2FB084B00251E1C084CE41AA410C1
S1135590A54204D0AB00F35898470135F8E770BD35
S11355A0086D0000086D0000086D00000C6D00001F
S11355B008B5034B011C186800F066F808BDC04626
S11355C098FFFF1F08B5034B011C186800F016F87C
S11355D008BDC04698FFFF1F002310B5934203D0B7
S11355E0CC5CC4540133F9E710BD031C8218934208
S11355F002D019700133FAE77047000030B5002972
S11356003ED004390B68002B00DAC9181D4A136810
S1135610141C002B02D14B60116031E099420DD271
S113562008680A189A4203D11368C3180B605368B8
S11356304B60216024E08A4203D8131C5A68002A74
S1135640F9D11D685C198C420BD109686918581886
S11356501960904214D110685268091819605A6090
S11356600EE08C4202D90C23036009E008680C1890
S1135670944203D114685268001908604A60596062
S113568030BDC04654030020032370B5CC1C9C439A
S11356900834051C0C2C01D20C2405E0002C03DA80
S11356A00C2300202B6042E08C42F9D3204A13687B
S11356B0101C191C002913D00A68121B0DD40B2AC4
S11356C002D90A608B181FE08B4202D15A6802602B
S11356D01BE04A685A600B1C17E00B1C4968E9E799
S11356E0144E3368002B03D1281C00F025F83060D9
S11356F0281C211C00F020F8031C421CD0D00322DB
S1135700C61C964386420AD11C60181C07210B3024
S11357101A1D8843821A0AD05142995007E0311A5F
S1135720281C00F009F8431CBAD0331CECE770BD08
S1135730540300205003002038B50023064C051CF8
S1135740081C2360FBF7ACF8431C03D12368002B2F
S113575000D02B6038BDC046E8030020031C0A7843
S113576001311A700133002AF9D170470023C25C59
S11357700133002AFBD1581E70470000F7B52A4DAB
S1135780061C2C680091171C0193002C01D1274C96
S11357902C6063681F2B15DD254B002B02D10120E3
S11357A0404240E08C20FFF703FF041EF7D02A6834
S11357B000230260021C88324360286013609E420A
S11357C00AD128E0002E26D0231C8833186800282C
S11357D010D1174B002BE2D084204000FFF7E8FEE5
S11357E00028DCD0031C0022FC335A609A60231C7E
S11357F088331860012261688A408B00C31880C313
S1135800FC304168114341600199D967022E02D1ED
S113581083681A438260002063685A1C6260023302
S1135820009A9B001A51FEBDE40300205803002097
S1135830B1550000F0B587B005900391344D2C6844
S1135840002C63D0231C88331E6863685A1E01929F
S1135850304A9B189B00F7180433E3180293019B0A
S1135860002B3DDB039B002B07D0002E31D03B1CCB
S113587080331B68039A93422BD16268029B01997F
S1135880013A5B68914201D1616002E00022029911
S11358904A60002B1DD062680492002E07D00122BA
S11358A001998A40311CFC314868104201D1984763
S11358B008E08968114203D105983968984701E0E6
S11358C038689847049B62689342B7D12B68A34217
S11358D0B4D1019B043F013B0193029B043BBDE710
S11358E00D4B002B12D062682368002A0BD1002BC9
S11358F009D02B60002E02D0301CFFF763FE201C61
S1135900FFF760FE9BE7251C1C1C99E707B0F0BD60
S1135910E4030020FFFFFF3FC5550000FEE7C0463B
S1135920FFFFFFFF01FF0187011B01FF0187011B2F
S11359301B5B306D1B5B343B34336D1B5B313B3382
S1135940376D0D53616E69747920436865636B200C
S11359504661696C6564211B5B306D0A001B5B301A
S11359606D1B5B343B34316D1B5B313B33376D0D49
S1135970496E76616C696420737570706C792076F9
S11359806F6C74616765205B25645D206D56211B17
S11359905B306D0A000D0A0A09435055204020254A
S11359A075204B487A0A000D0943505520706F77D3
S11359B06572206D6F64653A2025750A000D0943F0
S11359C0505520636C6F636B206D616E6167657207
S11359D020636F6E66696775726174696F6E3A20D1
S11359E025750A000D0952544320636C6F636B3AAA
S11359F02025640A000D0953504920636C6F636BC2
S1135A003A2025640A000D0949324320636C6F6310
S1135A106B3A2025640A000D094C5055415254201C
S1135A20636C6F636B3A2025640A000D09504F5272
S1135A3054204120636C6F636B3A2025640A000D87
S1135A4009504F5254204220636C6F636B3A2025F7
S1135A50640A000D0946544620636C6F636B3A2058
S1135A6025640A000D0941444320636C6F636B3A5B
S1135A702025640A000D09434D5020636C6F636B4D
S1135A803A2025640A000D095652454620636C6F7E
S1135A90636B3A2025640A000D0954504D20636C51
S1135AA06F636B3A2025640A000D30782530327814
S1135AB0202D2D3E205B307825303278203078251B
S1135AC0303278203078253032785D0A000D307815
S1135AD025303278202D2D3E203078253032780A3A
S1135AE0000D307825303278202D2D3E202D2D2D9F
S1135AF02D0A000D0A0925642F256420737563633C
S1135B0065737320726174652E0A000D0925642F74
S1135B10256420737563636573736573206D6174A5
S1135B2063686564207265662E2076616C756520F5
S1135B306F66203078253032782E0A000D092564EE
S1135B402062616420636F6D6D616E64732E0A0A56
S1135B50000D09566F6C746167652074726163652A
S1135B603A0A000D090925640925640A000D0A4151
S1135B7044584C3336323A0A0D000D0A4D4D413823
S1135B80343531513A0A0D000D0A424D453638304C
S1135B903A0A0D000D0A424D58303535616363658C
S1135BA06C3A0A0D000D0A424D583035356779724A
S1135BB06F3A0A0D000D0A424D583035356D616754
S1135BC03A0A0D000D0A4D4147333131303A0A0D7E
S1135BD0000D0A4C3347443230483A0A0D000D0A8E
S1135BE04C50533235483A0A0D000D0A544353338E
S1135BF0343732353A0A0D000D0A534934373035FB
S1135C003A0A0D000D0A484443313030303A0A0D47
S1135C10000D0A5349373032313A0A0D000D0A4358
S1135C2043533831313A0A0D000D0A414D47383893
S1135C3033343A0A0D000D0A4153373236323A0AE8
S1135C400D000D0A4153373236333A0A0D000D095F
S1135C50496E76616C6964207761727053656E7306
S1135C606F72446576696365205B25645D207061AD
S1135C707373656420746F20726570656174526516
S1135C8067697374657252656164466F72446576C0
S1135C90696365416E64416464726573732E0A00BE
S1135CA00D09506F776572757020636F6D6D616E4D
S1135CB064206661696C65642C20636F64653D25AE
S1135CC0642C20666F7220424D583035356D616703
S1135CD02040203078253032782E0A000D09506F8C
S1135CE0776572646F776E20636F6D6D616E64208B
S1135CF06661696C65642C20636F64653D25642C62
S1135D0020666F7220424D58303535616363656C8F
S1135D102040203078253032782E0A000D09506F4B
S1135D20776572646F776E20636F6D6D616E64204A
S1135D306661696C65642C20636F64653D25642C21
S1135D4020666F7220424D583035356779726F2066
S1135D5040203078253032782E0A000D09506F77B4
S1135D606572646F776E20636F6D6D616E6420661B
S1135D7061696C65642C20636F64653D25642C2027
S1135D80666F72204C3347443230482040203078CC
S1135D90253032782E0A000D09506F776572646FD2
S1135DA0776E20636F6D6D616E64206661696C65EA
S1135DB0642C20636F64653D25642C20666F72201B
S1135DC05443533334373235204020307825303231
S1135DD0782E0A000A0A0A0D426F6F74696E6720F2
S1135DE0576172702C20696E20332E2E2E200032C3
S1135DF02E2E2E2000312E2E2E0A0D000D0A0A0AF8
S1135E000A5B202A090909095709610972097009FD
S1135E10287265762E2062290909092A205D0A0064
S1135E200D5B2020090909092020202043616D62AF
S1135E307269646765202F2050687973636F6D7091
S1135E406C6162202F2050534D0909090920205DFF
S1135E500A0A000D09537570706C793D25646D56FE
S1135E602C0944656661756C7420546172676574AD
S1135E7020526561642052656769737465723D30B0
S1135E8078253032780A000D094932433D25646B88
S1135E90622F732C095350493D25646B622F732C78
S1135EA009554152543D25646B622F732C094932C4
S1135EB0432050756C6C2D55703D25640A0A000D05
S1135EC00953494D2D3E53434743363D30782530E1
S1135ED0327809095254432D3E53523D30782530CF
S1135EE0327809095254432D3E5453523D3078259B
S1135EF03032780A000D094D43475F43313D307815
S1135F00253032780909094D43475F43323D3078E3
S1135F102530327809094D43475F533D30782530A9
S1135F2032780A000D094D43475F53433D307825CD
S1135F303032780909094D43475F4D433D30782598
S1135F4030327809094F53435F43523D307825304E
S1135F5032780A000D09534D435F504D50524F544F
S1135F603D307825303278090909534D435F504D4F
S1135F704354524C3D30782530327809095343421A
S1135F802D3E5343523D3078253032780A000D09B6
S1135F90504D435F52454753433D30782530327866
S1135FA009090953494D5F53434743343D3078252C
S1135FB03032780A0A000D0925647320696E205274
S1135FC054432048616E646C657220746F2D646163
S1135FD074652C09256420506D6772204572726FB8
S1135FE072730A000D53656C6563743A0A000D2DD3
S1135FF0202761273A207365742064656661756C97
S1136000742073656E736F722E0A000D2D20276243
S1136010273A2073657420493243206261756420F5
